:1000000000300020C1000000932B00007737000073
:1000100000000000000000000000000000000000E0
:100020000000000000000000000000004705000084
:100030000000000000000000CD05000015060000D3
:100040007F3700007F3700007F3700007F370000D8
:100050007F3700007F3700007F3700007F370000C8
:100060007F3700007F3700007F3700007F370000B8
:100070007F3700007F3700007F3700007F370000A8
:100080007F3700007F3700007F3700007F37000098
:100090007F3700007F3700007F3700007F37000088
:1000A0007F3700007F3700007F3700007F37000078
:1000B0007F3700007F3700007F3700007F37000068
:1000C0000749084A084B9B1A05DD002408591051BE
:1000D00004349C42FADB054880470548004700008D
:1000E0001C2F0100C0F0FF1F9CF9FF1F813700008B
:0400F0007104000097
:10040000FFFFFFFFFFFFFFFFFFFFFFFFFEFFFFFFFD
:1004100010B5064C2378002B07D1054B002B02D0DA
:10042000044800E000BF0123237010BDA0F9FF1FA6
:1004300000000000102F0100084B10B5002B03D066
:100440000749084800E000BF07480368002B00D1B7
:1004500010BD064B002BFBD09847F9E700000000C9
:10046000A4F9FF1F102F01009CF9FF1F00000000DE
:10047000164B002B00D1144B9D46402292029A1A33
:10048000924600218B460F461348144A121A04F074
:10049000B1FF0F4B002B00D098470E4B002B00D024
:1004A00098470020002104000D000D48002802D0CC
:1004B0000C4804F00DF804F01FFE2000290002F0A3
:1004C00023FE04F013F8C0460000080000300020AE
:1004D00000000000FB300000A0F9FF1FB81600204C
:1004E000D14400006549000080F309887047EFF3AC
:1004F00009807047684680F309884A480078C00739
:1005000003D1032080F314887047022080F31488FD
:100510007047454B9C46EFF305831B0605D1EFF36F
:100520001483DB0701D000DF704760473F4B9C46D8
:10053000EFF305831B0605D1EFF31483DB0701D02E
:1005400000DF70476047EFF309808169023909785D
:1005500000292BD1A6461FC8A4467446E047EFF3F6
:10056000098307C3324B06CB91421CD0083B0029BC
:100570000DD0EFF309802038C862F0C044464D46E4
:1005800056465F46F0C00CB401F0A2F90CBC1A60EC
:10059000D06A1030F0C8A046A946B246BB4680F3E8
:1005A00009882038F0C80220C043004710B5214A0E
:1005B0001268914209D8204C89006458A6461FC889
:1005C000A446F047EFF309840FC410BD01F008F909
:1005D000174B06CB91421AD0083BEFF30980203825
:1005E000C862F0C044464D4656465F46F0C00CB463
:1005F00001F06EF90CBC1A60D06A1030F0C8A04649
:10060000A946B246BB4680F309882038F0C80220CC
:10061000C043004701F03EF9DAE701F039F901F093
:1006200039F9D5E7FC15010023140000411400003E
:100630006416002000000000FCFFFFFF7047000070
:1006400010B5024B1B689847FBE7C046C4F0FF1F7C
:10065000F7B5836A00919B0804D1214B1B68019375
:100660001B049B0C056B9C002C19620700D5043CF5
:100670008027221F7F0417602700009A2600083F6A
:100680003A600022403E31009446624604C18F42E7
:10069000FBD12200C769203A1760009AC662426304
:1006A0000F4A12680092D20016D5112B14D9103BB4
:1006B0005A08D20053421A00383AA41832000949A5
:1006C000A24203D0083A51601160F9E7F3180433ED
:1006D0009D4201D2034A1A60034B2B60F7BDC0460E
:1006E000F8150100CCCCCCCCA52E5AE2C36A196215
:1006F0007047C36A19625A627047000010B50E480D
:1007000000F066FA02000D4B0D481A6000F060FA26
:1007100002000C4B0C481A6000F05AFA0B4A0C4BC2
:100720001060180003F0D4FE04F0E6FC0021002065
:1007300002F0EAFC10BDC0468416010044110020FE
:100740007C160100F4F9FF1F00160100F0F9FF1FED
:100750006549000010B5FFF773FF10BD10B5040028
:1007600000F05CF921000200014803F0D1FD10BD4A
:10077000181601008020064A80001060054B064ACA
:10078000064913600648074ACB1A03601160704798
:10079000F8090020B81600201C0E0020002E0020B2
:1007A000180D00201C0A002000F02AFBFFF7E2FFD2
:1007B0000348002100F076F900F0B0F8FEE70000F1
:1007C000C8F0FF1F012110B5024B4942186800F024
:1007D0001BFA10BDF4F9FF1F10B5024B186800F0AA
:1007E00021FA10BDF4F9FF1F80B5034FBC4600DFAE
:1007F000024FBC4600DFFEE71D0A0000390A000078
:1008000030B500240B4A1368002B06D09D68A9421E
:1008100003D31C00491B1B68F6E703608160002BB3
:1008200002D09D68691A9960002C01D0206000E018
:10083000106030BD20160020002313B5984218D058
:10084000431C15D00C4C0D4A2300904211D80C4B80
:100850001B680193FA239B005843019B0199013BBC
:10086000C0180DF0BFF92300A04202D883B200E007
:10087000044B180016BDC046FEFF000000093D00F5
:10088000F4150100FFFF0000031E09D003220240FF
:100890000020824204D119781000002900D11800EC
:1008A0007047000070B50E4D2878002815D10D4C0A
:1008B00023680533D97F01F07FF82368DA78FF2AAF
:1008C00003D1DA6A203282F309886268002A00D1F3
:1008D0000CC401F025FA01232B70002070BDC04626
:1008E0001D16002064160020014B18787047C04682
:1008F0001D16002090B5EFF30584002C03D1EFF313
:100900001484E40702D4034B187802E0024FBC467B
:1009100000DF90BD1D160020E9080000F0B589B089
:10092000EFF305838225002B35D1FFF7E3FF002885
:1009300007D11A4C2468002C03D06468002C00D026
:10094000A047EFF3148403263440022C0FD0B442A6
:1009500018D0FF25012C1ED008AC84F30988104C58
:100960002478E40707D5022484F3148805E00C4CAE
:100970002478E4070BD486F31488BFF34F8FBFF3BA
:100980006F8F04E0064CFF252478E40703D4054F5D
:10099000BC4600DF0500280009B0F0BD5416002059
:1009A000FC150100A508000070B50B00150000281B
:1009B00001D100202AE00668002EFAD00422815ED0
:1009C000CA1C92B2062AF4D80022C468944200D00D
:1009D0000269043124022143300001F02DF800287F
:1009E000E7D00B4B01388000C4580A4AE36A5A63C7
:1009F000094B1B68002B07D09B68002B04D0E078C4
:100A000029009847A06300E0A563200070BDC046A0
:100A1000A0100020E90700005416002010B500F0D7
:100A2000C3FF031E03D00138024B8000C3581800D7
:100A300010BDC046A010002010B5FFF725FF802391
:100A4000041E0FD0084B1B68002B04D0DB68002B62
:100A500001D0806B9847E07801F040F88123FF28AF
:100A600000D00023180010BD54160020B0B50500BA
:100A7000EFF30584002084420FD1EFF31480C00708
:100A800007D406480078002803D12800FFF78CFF20
:100A900003E02800024FBC4600DFB0BD1D16002059
:100AA000A909000010B50022FFF7E0FF10BD00000B
:100AB000B0B50500EFF305848220002C03D1280097
:100AC000014FBC4600DFB0BD390A0000002310B55D
:100AD000984204D0FFF7B0FE01F058F94023180007
:100AE00010BD0000B0B50500EFF305848220002C96
:100AF00003D12800014FBC4600DFB0BDCD0A000085
:100B0000830705D1002805D0436901691B6803E00C
:100B1000002300E0030019001800704790B504009E
:100B20000800034FBC4600DF20606160200090BDDC
:100B3000010B000010B5031E0AD00468231E07D065
:100B4000002322789A4203D1200000F08CFC23007D
:100B5000180010BD70B5032405000E00044080236A
:100B6000002C12D1002810D00278032A0DD10800E1
:100B7000FFF762FE0100280000F04EFD230001286F
:100B800003D1C133002E00D1403B180070BD10B519
:100B90000324802304400AD1002808D00278032AC5
:100BA00005D100F0C5FC8123FF2800D023001800E8
:100BB00010BD10B503248023044007D1002805D0C0
:100BC0000278032A02D100F057FC2300180010BD60
:100BD000B0B50500EFF30584002084420FD1EFF398
:100BE0001480C00707D406480078002803D12800E5
:100BF000FFF7A0FF03E02800024FBC4600DFB0BDB6
:100C00001D160020350B0000B0B50500EFF305847C
:100C10008220002C03D12800014FBC4600DFB0BD6C
:100C2000550B0000B0B50500EFF305848220002CC1
:100C300003D12800014FBC4600DFB0BD8F0B000080
:100C4000B0B50500EFF305848220002C03D1280005
:100C5000014FBC4600DFB0BDB30B000010B5031E52
:100C60000FD00468231E0CD0002322789A4208D1AA
:100C700005481300814204DC89B2200000F02EFDFB
:100C80002300180010BDC046FFFF000010B503246C
:100C9000802304400CD100280AD00278022A07D110
:100CA0004188044A0133914202D000F04DFD2300F7
:100CB000180010BDFFFF000010B50324802304407E
:100CC00007D1002805D00278022A02D100F00CFDDD
:100CD0002300180010BD000010B503248023044039
:100CE0000CD100280AD00278022A07D14188044A90
:100CF0000133914202D000F03DFD2300180010BDE9
:100D0000FFFF0000B0B50500EFF30584002084422A
:100D10000FD1EFF31480C00707D4064800780028ED
:100D200003D12800FFF79AFF03E02800024FBC46DA
:100D300000DFB0BD1D1600205D0C0000B0B5EFF364
:100D40000584002C02D0FFF7C7FF02E0014FBC462C
:100D500000DFB0BD8D0C0000B0B50500EFF30584D9
:100D60008220002C03D12800014FBC4600DFB0BD1B
:100D7000B90C000010B50300041E0FD001680B1E53
:100D80000CD04068031E09D0002302789A4205D196
:100D90000431890089B200F021FA6368180010BD9F
:100DA00070B5104C2378002B01D100F03DFFFF22DD
:100DB0000D4B25781B689A70002D0CD129000B482B
:100DC000FFF7D8FF0A4B2A00186029000948FFF7EF
:100DD000EBFD094B1860012300202370074B1870AE
:100DE00070BDC0461C160020641600208816010045
:100DF0004011002004160100181600201D160020C6
:100E0000B0B5EFF305858224002D0AD1EFF31484E9
:100E1000E40702D4FFF7C4FF02E0034FBC4600DF43
:100E200004002000B0BD0000A10D000030B504009A
:100E300085B00D00002814D00378012B14D10800D0
:100E4000FFF7FAFC02A90200200000F0D5F9012802
:100E500004D12800451EA841800100E0102002991D
:100E600004E08020210001E0802000210022130006
:100E700005B030BD70B5802304000E0015000028B9
:100E80000ED0002A0CD10278012A09D100F00AFA0A
:100E90008123002804D03100200000F007FA2B0045
:100EA000180070BDF8B5124D2C68002C1FD001271A
:100EB000A368013BA360A268002A18D10D4B2668E5
:100EC000210018682E60FFF7D5FF002802D004200B
:100ED000FFF744FC6379012B04D1E1682000FFF7A0
:100EE0008FFC00E02771002E01D03400E3E7F8BD4D
:100EF00020160020401100207FB504001600081EB7
:100F000001D0002A02D0802323600FE00B78012B50
:100F1000F9D102A901AD00F0CFF9042801D0019662
:100F200001E010230193230007CD07C3200004B084
:100F300070BD0000B0B50400EFF30580002803D0B9
:100F40002000FFF7D9FF07E008001100034FBC465F
:100F500000DF20606160A2602000B0BD2D0E0000A7
:100F60007FB50122094B5242196803A8FFF7E2FF3F
:100F7000039B102BF5D1049901A8FFF7CFFD019B2E
:100F8000002BEED002989847EBE7C04640110020B6
:100F900010B5038B4278194304000183438B062A62
:100FA00004D11A000A40934216D105E0052A13D154
:100FB0001A000A4010D0428399432183200000F098
:100FC000D7F80123082120006370628BFFF791FBA3
:100FD0002100024800F004F810BDC046241600208D
:100FE00030B502788C78013A4368D2B2002B05D034
:100FF0009D78A54202D318005B68F7E74B6041601B
:10100000022A04D8002B00D09960886001E00023F8
:101010008B6030BD10B5436804785968013C41606D
:101020000022022C05D8914201D088605A609A6053
:1010300000E05A60180010BD034B5A68426000225D
:10104000586082607047C04624160020124A10B5CE
:10105000D368002B01D0938A0CE00024CB1AC46023
:10106000D06002619382848214E0002CF5D0A28AC1
:101070009B182200D4688B42F7D3C460D060C46848
:101080000261002C00D020615B1A9BB28382918A9E
:10109000CB1A938210BDC0463C16002070B5194D86
:1010A000EB68002B2DD00126AB8A013BAB82AA8ACC
:1010B000002A26D1EC68002C23D0A368002B08D08E
:1010C000616859606168002901D08B60626000230B
:1010D000A36021000C48FFF783FFA38AAB826378EB
:1010E000042B04D1094B1A68E38AD318A382002287
:1010F000E3686670EB60934201D01D61E26022619B
:10110000D5E770BD3C16002024160020A81600204C
:101110008368002B06D042685A604268002A0AD0D1
:10112000936008E0044B5A68904202D142685A60CA
:1011300001E0131EF7D170472416002070B58468B3
:101140000500002C04D14378012B0DD1074C04E09D
:101150002378002B01D1A468FAE72800FFF7D8FF15
:1011600029002000FFF73CFF70BDC0462416002078
:10117000036910B5002B0FD0C268DA60C268002A7C
:1011800007D09C8A818A6118998213610023C36009
:1011900000E09A820023036110BD000070B50E4C80
:1011A000E578EFF3108372B6A3789D4207D95A1CF5
:1011B0002378A2705A1C954200D10022227062B698
:1011C0009D4204D9DB00E3185860996002E00220D8
:1011D000FFF7C4FA70BDC046BC10002001230370A5
:1011E0000023103989084370837043600381438171
:1011F0008381C1817047000070B5150082890400A9
:10120000002A35D04389181D800000590133086039
:10121000E1899BB26381994201D1002363816368B4
:10122000002B1DD06378022B1AD12000FFF7F2FEAD
:1012300005000021FFF75AFA2389E9691A1D920077
:1012400011510133E2899BB223819A4201D10023DB
:1012500023812800FFF78CFF280000F06BFB05E0DE
:10126000EFF3108372B6013AA28162B6002015E056
:101270000120002D12D06268094B002A04D01968A1
:101280002000FFF7ADFE04E01B6863605A609C60BD
:1012900060702800082100F06DFB012070BDC04681
:1012A00064160020C3898089181A704710B5FFF7AB
:1012B00075FF00F081FA10BD10B50400838900208D
:1012C00083421ED0638904339B001B590B606378F3
:1012D000022B05D101002000FFF760FF00F06CFA3F
:1012E000EFF3108372B6A389013BA38162B66389D1
:1012F000E28901339BB2638104209A4201D1002329
:10130000638110BD70B50D0041680400002947D00D
:101310004678022E1BD0032E0AD0012E59D1FFF79A
:1013200079FE04002A001021FFF7E3F9667032E02D
:10133000280000F076F8051E4BD02000FFF76AFE6B
:1013400029000400FFF7D2F90123637023E0FFF7BF
:1013500061FE05000021FFF7C9F92389E9691A1D1B
:1013600092001151EFF3108272B6A2890132A2816C
:1013700062B60133E2899BB223819A4201D10023F4
:101380002381012328006B70FFF7F2FE290011482A
:10139000FFF726FE1DE02000FFF7EAFE2100F6E73A
:1013A0008289C089824211D223891E1DB60035511F
:1013B000EFF3108572B60132A28162B601339BB29F
:1013C000984201D0238104E0218102E00320FFF74D
:1013D000C5F970BD2416002030B50300002A06DAD6
:1013E00007205200520807328243102403E00320F2
:1013F0000C24033282430120002A11D015198D429A
:101400000ED859181C19504259601C609A6009186E
:10141000A318994202D31B501C00F9E7002020605A
:1014200030BDEFF3108272B601231A400368002B1F
:1014300001D019680160002A00D162B61800704717
:10144000012381420DD3426891420AD2EFF3108208
:1014500072B6134002680A60016001D162B600E012
:101460000023180070470323037000234380436068
:101470008360C36070470000F8B543880400002B08
:1014800028D08068036A9C4203D1E368036207E0C6
:101490001300002B04D0DA689442F9D1E268DA60D4
:1014A000431DDB7F026A002A0AD05168002905D05B
:1014B0008D78191CAB4200D2291CCBB2D268F2E75E
:1014C00082789A4206D08370174B1B68984201D0ED
:1014D000FFF734FE01276568144E002D0FD0200061
:1014E000FFF798FD05000021FFF700F92800FFF73E
:1014F0003FFE6F7029003000FFF772FDEBE7736865
:10150000002B0ED0084F9A7839688B789A4208D908
:101510003000FFF765FD01223B6828005A7000F09B
:1015200009FA00202070F8BD64160020241600205F
:10153000F7B543880500FF20002B67D0344AA9681F
:1015400014680192A14261D1013B9BB26B80002BD8
:1015500001D000205AE00B6A9D4203D1EB680B6278
:1015600007E01300002B04D0DA689542F9D1EA684D
:10157000DA604B1DDB7F0C6A002C0AD06268002AFF
:1015800005D090781A1C834200D2021CD3B2E468C2
:10159000F2E78B706A681F4F002A28D02800FFF7F7
:1015A00039FD06002100FFF7A1F83000FFF7E0FD4C
:1015B00001236B80336AAE60EB60019B3562196872
:1015C0007B688A789B7830009A420DD23800FFF70A
:1015D00007FD38003100FFF703FD0122019B2000C9
:1015E0001B685A700123737000F0A4F9B1E77A68A0
:1015F00092789A42ADD93800FFF7F2FC0122019BA4
:1016000020001B685A7000F095F92000FEBDC0460E
:10161000641600202416002070B5438804000E00D4
:10162000164D002B05D12A68116A8260C1601062D4
:1016300003E0826829688A4203D101336380002075
:101640001BE00120002E18D08B789178994203D2AC
:101650009370A068FFF772FD6268002A04D02968C1
:101660002000FFF7BDFC03E02B6863605A609C60BC
:101670003000092100F07EF9012070BD64160020C1
:101680000022034B1A60034A1268DA807047C04692
:10169000581600208016010010B50D4B0D4C18682F
:1016A00062680D49904205D01A60DA880868013AEC
:1016B00082189A8098880A88904208D100222000D7
:1016C0001A60FFF7A7FC01002000FFF789FC10BD9E
:1016D0005816002024160020A816002002230370AC
:1016E0000023418043607047F8B5050001276C680E
:1016F000134E002C0FD02800FFF78CFC04000021B3
:10170000FEF7F4FF2000FFF733FD67702100300083
:10171000FFF766FCEBE77368002B0ED0094F9A7851
:1017200039688B789A4208D93000FFF759FC0122BA
:101730003B6820005A7000F0FDF800202870F8BDCA
:101740002416002064160020436810B5002B0CD02E
:10175000FFF760FC04000121FEF7C8FF2000FFF73F
:1017600007FD200000F0E6F802E0438801334380E3
:10177000002010BD10B50021FFF710FD00F01CF88F
:1017800010BD0000436810B5002B0ED0FFF742FCDF
:101790000400FFF7EDFC012120006170FEF7A6FFB9
:1017A00021000448FFF71CFC02E04388013343801A
:1017B00010BDC04624160020064B1B78002B04D118
:1017C0008022054B52051A6002E00122034B1A7079
:1017D0007047C046210A002004ED00E0200A0020E6
:1017E000194B70B5186801234370FFF725FC174C9F
:1017F0006578A378002B1FD0EB00E31858680278B7
:10180000002A04D1996889B2FFF7C2FB07E0012AD8
:1018100003D19968FFF776FD01E0FFF7B3FFE378A6
:1018200001359D4200D10025EFF3108372B6A378F5
:10183000013BA37062B6DCE765700548FFF7EAFB81
:1018400000F05AF870BDC04664160020BC1000209D
:1018500024160020094BFF211A68094B01201A6049
:101860000022084B09061A60074B07321A60074A24
:10187000404213680B4313607047C0469016010046
:1018800014E000E018E000E010E000E020ED00E0EF
:10189000704700000B4B10B5186801234370FFF729
:1018A000CBFBFFF7F9FE084A136801331360FFF71B
:1018B000F5FBFFF7F7FA0548FFF7ACFB00F01CF863
:1018C00010BDC04664160020A81600202416002073
:1018D000074B10B51A68136BD26A934203D8054AB6
:1018E0001B68934202D00120FEF738FF10BDC046AE
:1018F00064160020A52E5AE2074B10B5586002234B
:101900004370064B1B68002B04D01B69002B01D0D1
:10191000806B984710BDC046641600205416002006
:1019200010B50348FFF776FBFFF7E6FF10BDC04692
:101930002416002070B5041E02D1FFF7F1FF13E05A
:101940000A4EA2783068012583789A4207D9FFF7BA
:1019500073FB336820005D70FFF7CEFF04E0657015
:1019600021000348FFF73CFB70BDC0466416002011
:101970002416002070B50D0000280ED0074B084C2F
:10198000984203D001002068FFF760FB23680548F8
:101990005D70FFF73FFBFFF7AFFF70BDFFFF00007B
:1019A0006416002024160020024B1B68181E00D06D
:1019B000D87870476416002010B5002813D11A4B50
:1019C0001B6899700533D977184843689B788B4218
:1019D00026D9154C2168FFF703FB012223685A70B2
:1019E000FFF79EFF1CE0124BFF221B88984218D87D
:1019F000431E10489B001C58002C12D0631DA17080
:101A0000D977094B1B689C42DED02000FFF796FB7C
:101A10006378012B04D10548FFF7FCFAFFF78AFF32
:101A20000022100010BDC0466416002024160020BD
:101A300096160100A0100020F0B585B00293CBB23D
:101A400015005A42534101902048CE18FFF7E9FC97
:101A5000041E01D1002037E0056301251C4B320A2A
:101A600019881C4F82628D42F4D86B1E0393AB0021
:101A7000043BFB58002B01D00135F4E70299F6B284
:101A8000E16101216170611DE5702370A670CE7760
:101A9000A11D6360A360E36023612362A382E382EC
:101AA00023836383CB77002A03D10B48FFF7B9FC6C
:101AB000206301992000FEF7CBFD6B1E9B002000E8
:101AC000FC50FFF737FF280005B0F0BD6814002078
:101AD00096160100A0100020900E0020F7B54C4D86
:101AE000002803D02B68DB7898423DD100232C6876
:101AF00001276370FEF7FBFCE062FFF7E9FE2B684D
:101B00001C6A002C1FD06368002B16D02000FFF742
:101B100081FA06000021FEF7E9FD3000FFF728FBFF
:101B2000777031003B48FFF75BFAE368326A678001
:101B3000A660E26034621C00E3E7E2686380A360B1
:101B4000E3601400DDE72A683349D3783348013B6A
:101B50009B005C50116BFFF773FC296830480C63E5
:101B6000FFF76EFC2C604EE02E4BFF241B88984242
:101B70004BD8294B01388200D65800920193002E91
:101B800043D03000FFF7C4FA3000FFF7F1FA346AAF
:101B9000002C21D06368002B18D02000FFF73AFA00
:101BA00007000021FEF7A2FD3800FFF7E1FA01234C
:101BB00039007B701748FFF713FA0122E36862804F
:101BC0003A6AA760E2603C621C00E1E7E268638079
:101BD000A360E3601400DBE7019B009A0F489C5070
:101BE000316BFFF72DFC310034630D48FFF728FC03
:101BF0000848296843689A788B789A4205D9012366
:101C00004B70FFF7EDF9FFF78BFE2000FEBDC046DD
:101C10006416002024160020A0100020900E002042
:101C200068140020961601002D4B70B5198800230A
:101C30001C002C488B4204D29A0012181460013305
:101C4000F8E7294B3C2219882848FFF7C5FB80227A
:101C5000274B12061B88274E1A43274B3000196862
:101C6000FFF7BAFB254B08221988254B0025186879
:101C7000FFF7B2FBFF23234C3000E370FE3B6370A1
:101C8000631DDD77A31DDD77A5622570A5706560F6
:101C9000A560E56025612562A582E58225836583CF
:101CA000FFF7BFFB184920632000FEF7D1FC042298
:101CB000164B20001A705D60154B1A70DD601D61B7
:101CC0009D82144B1C6002236370FFF715FE124ABD
:101CD000124B12781D705D70DA70FFF7D1FC70BD89
:101CE00096160100A0100020FE15010068140020C7
:101CF000F8150100900E00207816010074160100FE
:101D0000CCF9FF1F6C160020550700002416002098
:101D10003C1600206416002094160100BC10002020
:101D2000FF21154B09041A6810B50A431A601B6895
:101D300012495B020A689B0E9B0613430B60FFF778
:101D400089FD0F4C2060002815DB83080D4A9B009D
:101D50009B181822C0001040E732824019680A43DD
:101D60001A602168084A4B099B009B181F221140EA
:101D70001E3A8A401A6010BD20ED00E01CED00E024
:101D80006016002000E400E000E100E010B503214F
:101D9000FFF7F0FD10BD10B50368984710BD00288F
:101DA00001D00B680360704770470000F8B5144E0F
:101DB000144C154D326830342900200002F082F8AE
:101DC00032682900200002F07DF8104F380000F042
:101DD00087FCFA20400002F0C1FA380000F0A2FCB3
:101DE000306005273268052AE6D829002000013F27
:101DF00002F068F8002FF5D10122054B1A60F0E7D8
:101E0000E00A0020800A0020A4160100900B0020A8
:101E10008C0B002070B528482849303002F052F869
:101E2000274D280002F094F800280BDD2800303000
:101E300002F036F8234BC4B21A68012A02D10022FC
:101E40001A601EE04C2C16D009D8422C19D0492C0F
:101E5000E1D11D491D4800F041FB1B4927E0522CF0
:101E600003D0532CD7D11A4906E01949174800F07E
:101E700035FB00211BE00021144800F02FFB144922
:101E800015E0124D0021280000F028FB114C002124
:101E9000200000F023FBFE20800502F053FA28000A
:101EA00000F0DFFB200000F0DCFB4224B3E7094830
:101EB00000F014FBAFE7C046800A0020A91601001D
:101EC0002C0B00208C0B002000007FC3E80A0020B0
:101ED00000007F433C0A0020C36810B50400002BBB
:101EE00001D09B689847200010BD000070B5060027
:101EF000084B0C3604000360002E08D005002C357A
:101F0000B54204D0103D2800FFF7E6FFF8E72000B7
:101F100070BDC0461020010010B50400FFF7E6FFB9
:101F2000200001F05DF9200010BD000010B5040094
:101F3000084B0360084B0363084B4363483000F0D1
:101F40003FF92000303001F099FF2000FFF7CEFF6D
:101F5000200010BD501F0100701F0100AC1F0100C8
:101F600008B4024B9C46303808BC60472D1F000067
:101F700008B4024B9C46343808BC60472D1F000053
:101F8000F0B50D00002104001F00124B0161036039
:101F900089B03030160000F01AF92000403000F00F
:101FA000EDF8EB68002B03D05B68290004A8984784
:101FB000EB683200039307930E9B04A90093200063
:101FC0003B0000F0FBF904A8FFF786FF200009B0F2
:101FD000F0BDC0467C170100962130B589019DB047
:101FE0001B4801F0A5FF1B4B0024029380231A4DD0
:101FF000220002A91B01009406A80595FFF7C0FF67
:1020000002A8FFF769FF154B58200293059501F0D0
:10201000CFF880230500220000941B0102A9FFF7DE
:10202000AFFF0F4B02A81D60FFF756FF0D4C303479
:102030000D4800F025F90D4B0D491A68200001F0FC
:1020400041FF0C4B1B68986802F06EFBF0E7C0463E
:102050002C0B0020AD1D000098160100151E00007D
:10206000E40A0020800A002088130000E00A002013
:10207000BA16010010F5FF1F10B50400FFF756FF58
:10208000200001F0ADF8200010BD08B4024B9C46C2
:10209000303808BC6047C0467920000008B4024BC5
:1020A0009C46343808BC604779200000F7B5962775
:1020B000214C18220021200003F09CF920001F4928
:1020C00002F039F81E4DBF010097002304220821B9
:1020D000280001F05BFE1B4C1B4E22003100280043
:1020E00001F052F88021194D00230097184AC901C8
:1020F000280001F04BFE31002200280001F044F8D6
:10210000144D154A2800302100F00EFB2200012456
:102110002800124901F038F80094114B114A14219B
:10212000114800F09BF90094104B114A11491248D4
:1021300000F094F9F7BDC046240A002048100000C2
:10214000800A0020C0F0FF1F2D1F00002C0B002074
:1021500004400000900B002010300000D927000040
:102160001020000014200000E80A002030200000A9
:1021700034200000143000003C0A002070B5050037
:102180000400083510220021280003F033F96560AF
:10219000201DFEF71DFD2060002802D1024802F03C
:1021A000B7F8200070BDC046D816010010B5006811
:1021B000FEF72AFD10BD10B50068FEF733FD10BD17
:1021C00010B504000068FEF73BFD200010BD70B59F
:1021D000050004000E00083508222800002103F045
:1021E00009F965603100201DFEF78CFD206020009C
:1021F00070BD10B50068FEF7A1FD10BD10B504005C
:102200000068FEF7A9FD200010BD0000036970B54D
:102210000400051D002B04D10A4A0B490B4802F0AB
:102220000FF8236928001B689847200001214030DF
:102230004942FFF7BBFF0023200063613030FFF706
:10224000D8FF70BD8F020000FD16010019170100B4
:1022500070B5050001210400403549422800FFF710
:10226000A5FF6069FEF724FC0023060020006361DF
:102270003030FFF7BEFF2800FFF79DFF300070BD34
:1022800010B5FEF72FFC10BD10B504000D4B083340
:102290000360FFF7DDFF23002C331B78002B04D0F5
:1022A000A06A002801D000F0A1FF20004030FFF715
:1022B00087FF20003030FFF7A1FF201DFFF70CFE45
:1022C000200010BD7417010010B50400FFF7DCFFFB
:1022D000200000F085FF200010BDCB6870B5040021
:1022E0000D00002B01D05B689847EB682000E3608D
:1022F00070BD0000F8B505000E0001210400403556
:1023000049422800FFF752FF6369002B04D02800E0
:10231000FFF751FF80204BE0264BA361A36A002BFF
:1023200002D00023244913E0636A9808FE235B056A
:10233000984201D8800001E00120404200F044FFB3
:10234000A0620028EDD12800FFF735FF85202FE09F
:10235000626A9208934204D2A06A9A001150013333
:10236000F6E7271DB74208D03800FFF7B5FD002F6C
:1023700003D031003800FFF7B0FF200021001830F3
:10238000FEF790FB606100280ED123002C331B78F0
:10239000002B04D0A06A002801D000F027FF2800FD
:1023A000FFF709FF812003E02800FFF704FF00206A
:1023B000F8BDC0460D220000A52E5AE27FB50400EC
:1023C0000025089865614642464125002C352E704F
:1023D000A2836362A0626846FFF77FFF2000694620
:1023E000FFF788FF04006846FFF776FD812C05D0D3
:1023F000852C05D0802C06D1034802E0034800E07C
:10240000034801F085FF7FBD361701001E1701004C
:102410004F1701000022835E70B504000D000133E8
:1024200004D124220549064801F00AFF6368002D03
:1024300001D0E26800E02269136070BD84170100DA
:10244000C417010070B504000D1C01F011FF291C18
:10245000200000F017FC01F039FF70BDF7B5040053
:102460000E000193150001F003FF3100260018272C
:102470000C36200000F070FC01F028FF3A0030001C
:10248000002102F0B7FF290025003000243501F0BB
:1024900052FE3A002800002102F0ACFF280001990A
:1024A00001F049FE01F0E4FE20000B4900F044FC7D
:1024B00001F00CFF20000021FFF7C4FF30000021D5
:1024C000FFF7A8FF28000021FFF7A4FF089B2000CA
:1024D000E36300232364FEBD6F12833AF7B5066CF5
:1024E00005000C1C002E1AD10021201C0BF054FDFD
:1024F000431E9841013640420640280031000C300E
:10250000FFF788FF0021201C0BF032FD431E98418D
:1025100001264042064028003100243076E0012E9A
:1025200038D10021201C0BF023FD2B002F00243379
:102530000C3701930021002819D0201C0BF02CFD32
:10254000411E8841414231403800FFF763FF3100AE
:102550000198FFF75FFF00212800FFF773FF0021BC
:10256000201C0BF019FD0026002865D16CE0201C12
:102570000BF012FD411E8841414231403800FFF707
:1025800049FF0021201C0BF0F3FC411E8841414211
:1025900031403AE0731C48D10021201C0BF0FCFCB8
:1025A0002B002F0024330C370193002816D0012173
:1025B0003800FFF72FFF0021201C0BF0D9FC431E31
:1025C000984102364042064031000198FFF722FF51
:1025D00000212800FFF736FF00262DE00021201CF7
:1025E0000BF0DAFC431E98410126404206403100C0
:1025F0003800FFF70FFF0021201C0BF0B9FC431E31
:10260000984101264042064031000198FFF702FF41
:10261000201C0CF07BFA01F057FF0CF099FA061C15
:10262000011C2800FFF70EFF00E000260021201CFF
:102630000BF0B2FC002801D0012307E00021201C90
:102640000BF096FC071E03D001235B422B6406E0CF
:102650000021201C0BF086FC002800D02F64301CC9
:10266000FEBD10B5040000210C30FFF7D3FE2000A2
:1026700000212430FFF7CEFE00212000FFF7E2FE0C
:102680000023236410BD10B5002801D01CC91CC054
:1026900010BD704710B5416803684A108068C907CB
:1026A00001D58158CB588018984710BD10B501F05E
:1026B000A7FC10BD10B5040001F0C3FC200001F020
:1026C000CFFC5823FF332067044958430BF08AFAA4
:1026D0006067200001F0D1FC10BDC046204E000014
:1026E0001022835E10B50400013304D124220B496B
:1026F0000B4801F0A5FDE36962690A201A6001F048
:1027000015FE1022A35E013304D12422034904489C
:1027100001F096FD236A62691A6010BD84170100FA
:10272000C4170100406F7047F0B5040025000F008A
:10273000160085B0103501F0ADFC182200212800EC
:1027400002F058FE390000272800183501F0F3FC8C
:102750003100280001F046FA200001F072FC200050
:1027600001F08BFC01F084FD164B174E69462800E2
:10277000009301970294039601F064FA6846FFF70C
:10278000ABFB01F0A3FD01F073FD104B694628007F
:10279000009301970294039601F080FA6846FFF7D0
:1027A0009BFB01F093FD1022A35E013304D1242290
:1027B0000749084801F044FD2000236A62691A6055
:1027C00005B0F0BDAD260000DC170100B526000005
:1027D00084170100C417010010B50400283001F06F
:1027E000D1F9200010BD000070B5094CA568A368A0
:1027F0002A1C002B08D1074A5E599A180433166028
:10280000C02BF8D1034AA26010308000815070BD07
:1028100000ED00E000F0FF1F10B5041C431C04D1C4
:1028200006480749152201F00BFD201C012100F08C
:10283000B7F901206406E40EA04010BDC9170100DD
:102840007C1A010038B5051C0C1C29804B1C0FD0CC
:10285000081CFFF7E1FF074B240BE418A401231D1C
:10286000EB6004332B611434083368606B61AC6037
:1028700038BDC046C03FE00308B50023C05E00F08D
:10288000BDF908BD38B50022835E041C0D1C013360
:1028900004D10A480A49332201F0D2FC002D06D0A7
:1028A000012D09D1A268636811680B4303E0A26897
:1028B000616813688B43136038BDC046C4170100BC
:1028C0007C1A0100F8B5051C0F1C2E1CA0363068C0
:1028D000002842D000231C1C204A99008A58A2409C
:1028E000104205D104220121D21A91406418E4B2A9
:1028F0000133052BF0D13B19194A9B009858002849
:10290000E3D0A3005A59F0231B031340A022120363
:10291000934208D0B0221203934206D090221203B1
:10292000934216D111E0022110E00E4B9D4201D0DE
:102930000D4B00E00D4B1A690123A340191C1140F7
:102940004B1E99410223591A00E00121084B1B68D4
:1029500098470123A3403360B7E7F8BDD81A0100B8
:102960000C0C002000900440C0F00FF800F00FF8AD
:10297000080C002008B502480021FFF7A3FF08BD9E
:102980000090044008B502482021FFF79BFF08BDD6
:1029900000C00440F7B59C46041C081C4B1C29D001
:1029A00063460193144B1A600B134906C90E23604A
:1029B0006160002B05D0032B07D1104F1F25202667
:1029C00006E00F4F1E251E1C02E00E4801F0A0FC81
:1029D0006DB2281C391CFFF707FF0123AB401D1CFB
:1029E0000020094B019A1D606368F618074BA6602A
:1029F000B600F250FEBDC046080C0020852900003C
:102A000075290000EC1A010000E100E00C0C002028
:102A100000218368014A9B00995070470C0C0020EC
:102A200070B50368254C90251C19230344682D03B9
:102A3000A4001C19F02320681B031840A84214D0DE
:102A400002D8002809D02BE0A0263603B04215D0CA
:102A5000B0231B0398421BD022E0031C002A23D082
:102A60002B1C012920D0A0231DE0002A02D001291F
:102A700018D10BE0131C022916D107E0002A02D05E
:102A800002290FD102E0131C01290DD1031C0BE018
:102A9000031C002A08D12B1C012905D1331C03E09B
:102AA000002301E0B0231B032168054A0A4080216E
:102AB00049040A431343236070BDC0464900040023
:102AC000FFFFF0FF00B589B001F0D2FB02A8134967
:102AD00001F031FB02AB00229B5E013304D11048B0
:102AE0001049242201F0ACFB039A059B96201A6042
:102AF000019201F033FC02AB00229B5E013304D152
:102B000007480849242201F09BFB039A069B962064
:102B10001A60019201F022FCDCE7C0464810000078
:102B2000C4170100141B010070B5051C0C1CA0B0DB
:102B300001F09EFB291C6846221C06F04DFF051E75
:102B400003DC01F0C3FB20B070BD0A4B0A4E1B68CA
:102B5000002B04D1301C0821042200F017FD0024B2
:102B60006B46301C195D013400F0F7FDAC42F7D123
:102B7000E7E7C046200E0020AC1600200FB407B5D2
:102B800004A901C90191FFF7CFFF03B008BC04B04D
:102B900018477FB51021684601F0B3FA07B000BDB1
:102BA000F8B5051C0C1C431C04D10E480E49142218
:102BB00001F046FB280B071C01230937BB400B4ED5
:102BC0000B4924027258134373500A4BC018030375
:102BD0007C20284018180268074B13401C430460EF
:102BE000F8BDC046C9170100821B010000700440F7
:102BF0003810000049000400FFF8FFFF38B5041C3E
:102C00000D1C431C04D106480649212201F018FB83
:102C10000322054BE418236893431D43256038BD08
:102C2000C9170100821B0100009004403F210020D1
:102C300010B50E4A13788B43834216D10C490D4BC5
:102C400058580D49000F09680130484351790B4A23
:102C5000490604D49C580A492140995005E0802433
:102C60009958640221439950400810BD0040064025
:102C70004410000000700440E0F0FF1F041000004A
:102C8000FFFFFEFF70B5051C0C1C081C00210BF09B
:102C90006FF9002809D1FE21201C89050BF07CF971
:102CA000002803D0FE24A40500E000242B68AE68B1
:102CB000186801300BF094FF211C0BF08DFC0BF019
:102CC000CBF900226B6830601A6070BD38B5031C08
:102CD00082681B6810681C680BF082FF051C601C72
:102CE0000BF07EFF011C281C0BF0ACFAFE218905BD
:102CF000041C0BF051F9002801D1201C01E0FE203A
:102D0000800538BDF8B50F1C041CFFF7DFFF051C5C
:102D1000381C0BF01DFF074B266819680BF05CFC94
:102D20000BF09AF901383060291C201CFFF7AAFF2C
:102D3000F8BDC0460C0D002010B5041C081C054948
:102D40000BF04AFC0BF0E2FE011C201CFFF7DAFF3F
:102D500010BDC04600247449F0B585B00191061C31
:102D6000081C654901F028FA6B4602901B89039301
:102D7000039A624B9A4204D1614862491D2201F0D4
:102D80005FFAFFF753FF604C604B8021E258002848
:102D900005D049040A43E250FFF748FF57E03F27B8
:102DA00089040A43E2505A4B5A49E2585A4B120FCF
:102DB0001B680D7801325A43BD430B1C802D45D052
:102DC0000D78BD4343D14D796D0634D48979C90658
:102DD0003DD4012118785D788006400F8140081CA1
:102DE00030210D4200D040011F21DB788B43602B46
:102DF00014D006D8202B0CD0402B0CD0002B14D193
:102E000015E0A02B0DD0C02B0DD0802B0DD1B721FC
:102E10000EE0A02100E0F021C9000AE0A021090194
:102E200007E0B721F8E73D4903E03D4901E0A02173
:102E30008900504307E008794B791F210840013091
:102E40005043194018310AF0CDFE00E0101C0BF081
:102E5000C7FE34490BF0F6F90025071CFE21381C8B
:102E600089050BF099F8002808D0FC21381C890549
:102E70000BF0B2FB0135071C072DEFD16A4601208C
:102E8000127A294B0292294A1F609446A758019A48
:102E9000039B110B021C09318A40111C6246394305
:102EA000A150182294461B0A9C4462469040204F31
:102EB000204AE1599B1808430821029A1B0301325A
:102EC000D2000D439A182031E0511D605160083244
:102ED000B2601A1C0433083232607360301C164929
:102EE000FFF710FF301C0021FFF7CCFE01980249CC
:102EF00001F026F905B0F0BD54180100FFFF0000F5
:102F0000DA1B0100ED1B01000070044004100000FA
:102F10004410000000400640E0F0FF1F950800004C
:102F2000710B0000002474490C0D002038100000C3
:102F30003C10000038000400204E0000704770472D
:102F400070B5041C03685B6A98472368201C1B69E2
:102F50000021012298472368061C421C04D1201C32
:102F60009B6A9847301C10E01B6900210222201C3C
:102F70009847051C2368311C1B690022201C9847B8
:102F80002368201C9B6A9847281C70BD084B10B50D
:102F90001B68002B0AD1074C0821201C042200F0DA
:102FA000F5FA9621201C890100F008FA10BDC046F0
:102FB000200E0020AC1600207047000008B5031C4E
:102FC0000020022B0DDD0749033B9B005A58585047
:102FD000824204D01368101C5B68984701E001200E
:102FE000404208BD1C0D002070B50C1C151C0228A9
:102FF00010DC0F4B1B68002B01D1FFF7C7FF6619D0
:10300000B44205D021780B4800F0A7FB0134F7E764
:10301000281C0BE00338084B8000C058002803D060
:1030200003681B68984701E00120404270BDC0461C
:10303000200E0020AC1600201C0D002010B50C1C2A
:1030400002280BDC0C4B1B68002B01D1FFF79EFF05
:103050000A4800F06AFB207001200BE00338084B9F
:103060008000C058002803D003689B68984701E09F
:103070000120404210BDC046200E0020AC160020AA
:103080001C0D002008B5031C0120022B0BDD033BA7
:10309000054A9B009858002803D00368DB689847CE
:1030A00001E00120404208BD1C0D002008B5031CB2
:1030B0000020022B0BDD033B05489B00185800281D
:1030C00003D003681B69984701E00120404208BD16
:1030D0001C0D002008B5022804D880239B014B60FA
:1030E000002005E001F0FCF90923036001204042C3
:1030F00008BD08B5012001F0F9F908B5FFF75CFF3C
:10310000FDF752FB08BD704708B5FFF7FCFFFEF75F
:1031100063FF08BD0C4910B50B681818EFF308825F
:10312000904205D30C220120084B40421A600AE06D
:10313000074A1268002A04D0064C2468A21890425C
:10314000F0D20860181C10BDDCF0FF1FB416002080
:10315000180D00201C0E002038B50A4C051C2368F1
:10316000986801F0E1FA2368D86801F0DDFA01F00F
:10317000D9F8002801D001F0F8F8002D01D0FFF7B0
:10318000A1FCFEE710F5FF1F0120704708B50021E4
:1031900002F046FA08BD08B501F0DAFA08BD08B534
:1031A000FDF710FB08BD08B5FDF716FB08BD0000D4
:1031B00010B502F039F8041E02D1024801F0A8F857
:1031C000201C10BD071D010010B502F02DF8041ED3
:1031D00002D1024801F09CF8201C10BD241D010002
:1031E00008B5002801D002F029F808BD08B500286C
:1031F00001D002F023F808BD031C04CB10B5041C59
:10320000002A00D1036022689A4204D0034804498E
:10321000592201F015F8206810BDC046431D010079
:10322000571D010038B50C4B0C4C08330360051CCE
:10323000201CFFF7E1FF0023201C094A9958A942EE
:1032400001D1002199508022043352009342F4D1DD
:10325000FFF7D2FF281C38BDB81D0100100D00205B
:103260001C0D0020F0B585B001913749051C02F016
:103270002FFB041E02D1FFF789FE61E0281C3349B1
:1032800002F026FB002803D1FFF780FE012457E05F
:10329000281C2F4902F01CFB002803D1FFF776FE03
:1032A00002244DE02B4E0024301CFFF7A5FF301CFC
:1032B000294FA600F359002B05D00134402CF7D13B
:1032C000FFF79AFF3AE001235B42F351FFF794FFC7
:1032D0002B783A2B06D1281C204902AA02F080FA4A
:1032E000029826E002A8291C00F0FAFB02A800F0D0
:1032F00043FC002801D1F05120E002A800F026FC98
:10330000002803D002A800F02BFC12E002A800F075
:1033100014FC051E01D1F05110E0036802A89F685B
:1033200000F0FEFB0E4A019B011C13401A1C281CD6
:10333000B847094B03349851002801D10124644255
:10334000201C05B0F0BDC046491C0100A91D0100AC
:10335000501C0100100D00201C0D0020A51D0100B7
:10336000FFFFFEFF3F21002010B50E4A13788B436C
:10337000834216D10C490D4B58580D49000F09686E
:103380000130484351790B4A490604D49C580A49F4
:103390002140995005E080249958640221439950B6
:1033A000400810BD0040064044100000007004407A
:1033B000E0F0FF1F04100000FFFFFEFFF7B50E1C3A
:1033C0000C210368041CDD780D400195DA788A43EE
:1033D000DA700268404B9A425CD1FFF7C3FF021ECD
:1033E00002D0FFF7BFFF61E03C493D4BCB583D4960
:1033F0001B0F0868013358433F233B499C460F7815
:103400009F430B1C802F51D065460F78AF434CD1A2
:1034100040224F793A4034D18979C90645D40121F7
:103420001A785F789206520F91400A1C30210F42A1
:1034300000D052011F21DB788B43602B14D006D8BB
:10344000202B0CD0402B0CD0002B14D115E0A02B3E
:103450000DD0C02B0DD0802B0DD1B7210EE0A021B7
:1034600000E0F021C9000AE0A021090107E0B7212E
:10347000F8E71E4903E01E4901E0A02189005043FE
:1034800010E00B794A791F210B400133114058435A
:10349000183107E0124B114AD158124B4903490F1A
:1034A000186801310AF09EFB00E0101C31010AF09F
:1034B00099FB1F262168020A0B783240B34313435D
:1034C0000B702368C0B25A7858702268019DD37877
:1034D0001D43D570F7BDC04600A0064000700440F3
:1034E00044100000E0F0FF1F004006409508000077
:1034F000710B0000F7B5013B061C0191151C0093F0
:10350000012B04D91D481E49A62200F099FE022D68
:1035100004D91C481A49A72200F092FE019B082BEF
:1035200004D019481649A82200F08AFE0C203368FE
:10353000DA78D97802408143D970012D06D0002D68
:1035400004D0022D04D10024012701E02C1C2F1CE3
:1035500020207F0033683C43E4B29C7031680B78D4
:1035600083430B703068009B01785B010B43DBB237
:1035700003703168CB781A43CA70F7BDEC1D0100A7
:10358000111E01007A1E0100C41E0100F7B54E4F46
:10359000041C0E1C081C391C009200F00DFE4B4947
:1035A000051C009800F008FE011C281C00F0E4FD3A
:1035B0000197051C431C04D145484649412200F0AF
:1035C0003FFE454B25609D421AD0444B9D421DD085
:1035D000434B9D4221D1FFF7C5FE424B424A9958C9
:1035E000002802D08020C00401E0802000050143B3
:1035F000802099503D49C0005A5802435A500CE06F
:1036000080203849394A00018B5804E08020354930
:10361000364A40018B5803438B500C212268D378E3
:103620008B43D37022680439D3780B43D37023685B
:103630001A795206FCD50C21DA78294F8A43DA70C0
:10364000254B9D4206D0254B9D4205D00023BD420F
:1036500004D102E0012300E0022363609621201CD4
:103660008901FFF7ABFE0123201C08210022FFF790
:1036700041FF301C019900F063FD0098134900F0F0
:103680005FFD731C08D008212268301CD3780B43DF
:10369000D3700639FFF7B2FA009B013308D004213A
:1036A00022680098D3780B43D3700239FFF7A6FA4B
:1036B000BD4207D101220E4B0E481A60211C073271
:1036C00001F00EFEF7BDC046101A0100E817010018
:1036D000D31E0100111E010000B0064000C00640CC
:1036E00000A00640007004400410000034100000E8
:1036F000200E0020AC160020034B196043680349DC
:103700009B005A507047C046300E0020240E002007
:10371000082103681A790A4202D01A790A431A71F9
:103720000368187920231840704710B5041C201C2A
:10373000FFF7EEFF0028FAD02368D879C0B210BD99
:10374000082103681A790A4202D01A790A431A71C9
:10375000036818797F239843704738B5051C0C1C03
:10376000281CFFF7EDFF0028FAD02B68E4B2DC71CB
:1037700038BD0000FEE7FEE7FEE7FEE7FEE7FEE7F6
:103780008822002010B580241E4B1F4952019850FA
:103790005A58A40022435A501C491D4A99501D4BA7
:1037A0001D4A996C11409964D96C0A40DA648922E7
:1037B0001A4B1A701A4B653A5A7076321A70D978C9
:1037C0007B3A0A40DA7001221A7158719A79D2064E
:1037D000FCD40C2299790A40082AFAD14021104AD7
:1037E00051710C2299790A40082AFAD19A79520625
:1037F000FCD51A210A4A11700C2299790A400C2A28
:10380000FAD110BD00700440381000000000011013
:103810004410000000900440FFF8FFFE00500640F6
:103820000040064000224021054B1A6098601A684B
:103830000A431A601A683F390A431A607047C04643
:103840000000044080210D4A38B513680C4D0B432D
:1038500013602C68002C05D00A48013CFFF7E2FFFA
:103860002C6009E0084D2888002803D0FFF7DAFF14
:103870002C8001E000F0B4FC38BDC04600000440DC
:10388000340E0020FFFF00003C0E0020F7B5664B11
:103890001A680192002A00D0C5E001268021634CFD
:1038A000634A1E60A35809040B43A350019A614B5D
:1038B000614D1A6001235B426B610533EB61EB697B
:1038C0005E4F3343EB615E4B3868E1584903490F63
:1038D00089190AF087F95B4B5B49C0180AF082F935
:1038E0005A4A01386860EE60A358594D3343A350DB
:1038F000019B1C202B605749FEF776FF8022564B18
:1039000052051A603F224E4BE0583B68000F534C63
:103910008019584323789343802B42D023789343D4
:103920005FD163795B0632D4A379DB0659D423785F
:1039300062789B065B0F9E4030231A4200D07601CE
:103940001F22E3789343602B14D006D8202B0CD091
:10395000402B0CD0002B14D115E0A02B0DD0C02B88
:103960000DD0802B0DD1B7210EE0A02100E0F02179
:10397000C9000AE0A021090107E0B721F8E73849AA
:1039800003E0384901E0A0218900704307E01F21CE
:10399000267963790E4001367043194018310AF0D8
:1039A00021F9061E1DD028490AF0A2F90F1E18D1D0
:1039B000301C25490AF016F9012802D107236B6053
:1039C00031E0391C4008012806D17823C90019408C
:1039D000753B1943696026E0C30702D401314008F2
:1039E000F1E7022123780E200B432370637801391D
:1039F0000B43002163706960217A184A144B01401F
:103A000003D0022905D15A680CE008215A680A43FC
:103A100008E0117A814304201172117A0143117276
:103A20005A6802435A60F7BD380E00200070044007
:103A30003C10000000700340FC700340E0F0FF1FEA
:103A40004410000020A1070040420F003810000081
:103A5000000004404538000000E100E0004006405E
:103A600095080000710B000008B5054B1B68002B82
:103A700001D1FFF70BFF034B9869C04308BDC04657
:103A8000380E0020FC7003404021024A13688B432B
:103A900013607047000004407047000070B5041CBC
:103AA000FFF7E2FF201A002802DC00F099FB10E08B
:103AB000084D094E041480B22C603080002C05D0D3
:103AC0000648013CFFF7AEFE2C6002E0FFF7AAFEBD
:103AD000348070BD340E00203C0E0020FFFF00003B
:103AE000002310B5036043600A78041C2F2A15D107
:103AF0004A789A4212D0481C191C206023681A7810
:103B00002F2A02D10133236005E0002A03D00133BC
:103B100001312360F2E700F0B3FC6060201C10BDAF
:103B20000068704708B54368181E05D000F054FCC3
:103B3000013843425841C0B208BD10B5041CFFF71C
:103B4000F1FF031E00D06368181C10BD08B5436860
:103B5000181E04D000F040FC43425841C0B208BDDA
:103B600010B5041CFFF7F2FF031E03D06268131E9A
:103B700000D0131F181C10BD4068431E9841C0B2EE
:103B80007047704710B5041C074B083303601C30A6
:103B9000FEF73EFF201C3830FEF79EF9201C28302F
:103BA000FEF79AF9201C10BDE81E010010B5041C98
:103BB000FFF7E8FF201CFFF713FB201C10BD0000DF
:103BC00038B5041C0D1CFEF787F9002C06D0002D1B
:103BD00001D1E56002E0024B2560E36038BDC046DC
:103BE00098160100F8B5051C041C134B0E1C083375
:103BF00008C51822281C002101F0FCFB0023201C12
:103C00000E4FE3612362636263636364391C28308F
:103C1000FFF7D6FF201C391C3830FFF7D1FF201CDE
:103C2000311C074A231C1C30FEF7B4FE281C311C33
:103C300000F067FA201CF8BDE81E0100833B00007D
:103C4000213D0000F7B5061C0D1C341C00F010FBD4
:103C5000331CEF6828341C330193201C002F10D034
:103C6000FEF73AF9002C08D0EB68002B03D05B6814
:103C7000201C291C9847EB687363012101980A1CDA
:103C800005E00549FFF79CFF01213A1C0198FEF76A
:103C9000C7FE00F01BFBF7BD833B0000F7B5061C19
:103CA0000D1C341C00F0E4FA331CEF6838341C336C
:103CB0000193201C002F10D0FEF70EF9002C08D025
:103CC000EB68002B03D05B68201C291C9847EB682D
:103CD000736401980221012205E00549FFF770FF96
:103CE00002213A1C0198FEF79BFE00F0EFFAF7BDA7
:103CF000833B0000C36810B5041C002B04D10548A9
:103D00000549064A00F09CFAE368201C1B689847A6
:103D100010BDC04619170100F81E01008F020000F7
:103D200008B5012903D0022904D1383000E0283039
:103D3000FFF7E0FF08BD704708B4024B9C463038DF
:103D400008BC6047373D00007047000008B4024BD4
:103D50009C46303808BC6047493D000008B500F07B
:103D600006F908BD08B4024B9C46303808BC6047D1
:103D70005D3D000008B500F0FFF808BD08B4024B37
:103D80009C46303808BC6047753D000038B5041CBF
:103D90001D1C049B00F0F8F8201C291C303000F09A
:103DA0004BF8054B201C1A1C083222601A1C643385
:103DB00028322263636338BD481F0100002070472A
:103DC000F8B50F1C0368051C5B6A8C183E1C9847ED
:103DD000A64209D001362B68721EDB6A1178281CB6
:103DE0009847431CF4D1341C2B68281C9B6A9847C5
:103DF000E01BF8BDF8B50F1C0368051C5B6A8C1846
:103E00003E1C9847B44209D02B68281C1B6B98476E
:103E1000431C02D030700136F4E7341C2B68281C98
:103E20009B6A9847E01BF8BD002070470020704750
:103E300000207047002070471FB5041C00F0A6FA50
:103E40000B4B01A81A1C44336360002308326361E2
:103E500022600849221C01F0A1FC074901A800F0DA
:103E6000DBFD6061FFF792F9201C04B010BDC04675
:103E7000B81F0100A51D010004200100074B10B56B
:103E80001A1C041C0832443302604360406900F08D
:103E900083FB201C00F08EFA201C10BDB81F01000F
:103EA00038B5041C03685B6A9847606900F03CFC05
:103EB0006069FFF770F9051C2368201C9B6A98470E
:103EC000281C38BD0EB477B5041C036807AD40CD7F
:103ED0005B6A98476069019500F026FC311C019AE5
:103EE000606905F01BFD051C2368201C9B6A984730
:103EF000281C7EBC08BC03B0184770477047704749
:103F000038B509014418A36945180C35002B04D1B4
:103F100004480549054A00F093F9A369281C1B6869
:103F2000984738BD19170100F81E01008F020000E4
:103F300038B5041C0D1C03681B689847291C201DFC
:103F4000FFF73CFA2368E5625B68201C984738BDA0
:103F500038B5041C03681B689847201DFFF7D8FB81
:103F6000051C2368201C5B689847281C38BD08B5D1
:103F70000430FFF7DAFB08BD10B50C1C0430FFF766
:103F8000ECFB201C10BD0000F8B5161C184A051CDF
:103F90000832026000220C35041C4260826082619B
:103FA0008262C362281C0F1CFDF796FF002D03D010
:103FB000104BE360104BA361251C1C35281CFDF73A
:103FC0008BFF002D03D00B4BE3610B4BA362251D30
:103FD000321C281C391CFFF7D9FA281CE16AFFF7AC
:103FE000EDF9281C0549221CFFF786FB201CF8BDB3
:103FF00008200100FB3E000098160100013F000070
:1040000010B5041C00F034F92368002B05D1E068DA
:1040100000F011F901236060236000F057F910BD32
:1040200038B5051C002400F023F92B68A34204D006
:10403000E86800F000F96C68041B00F047F9201CE8
:1040400038BD10B5041C00F013F9201CFFF7E8FF81
:10405000A36818180023A060236000F037F910BD92
:1040600038B5051C00F004F9281CAC68FFF7D8FF30
:10407000241800F02BF9201C38BD10B5041C00F0EA
:10408000F7F8E06800F0D7F800236060A36000F064
:104090001DF910BD002310B5036043608360041C4C
:1040A00000F09AF8E060201CFFF7E7FF201C10BD2D
:1040B00038B50022835E041C0D1C013304D1064870
:1040C0000649242200F0BCF86368002D01D0E268A4
:1040D00000E02269136038BDC4170100141B010001
:1040E00070B50D1C041C161CFEF7ACFB6B1C07D036
:1040F000201C0021FEF7C6FB201C311CFEF7BCFB78
:1041000070BD08B50222FFF7EBFF08BD70B50D1CAE
:10411000041C161CFEF796FB6B1C0BD0201C311CDC
:10412000FFF7C6FF201C0121FEF7ACFB201C00217D
:10413000FEF7A2FB70BD08B50022FFF7E7FF08BD40
:1041400010B5041C431C13D000228B5E5A1C0CD0EB
:10415000A34208D1201C8968FEF722FD201C002103
:10416000FEF74CFD04E00C31EEE7024800F0D0F819
:1041700010BDC0462020010008B5031E8B420AD0A6
:104180000B1C421C07D0031C4A1C04D0034800F03F
:10419000BFF801235B42181C08BDC0463120010056
:1041A00000228B5E5A1C05D0834201D1486802E090
:1041B0000C31F5E7181C704710B5041C431C07D0E0
:1041C000FFF7EEFF041C431C02D1024800F0A0F8E8
:1041D000201C10BD422001000048704794200100BF
:1041E00008B5024800F004F808BDC046942001005C
:1041F00038B50368041CDB68984763685A6823680D
:10420000002A02D19B68984714E05B6815689847BC
:1042100063682D1A002D08DC5A68916859601B6884
:10422000002BEAD050689847E7E75A682168106881
:104230000B69984738BD08B503685B68984708BDA7
:1042400070B5061C0D1C141C00F012F8311C2A1C41
:104250000348231CFEF792FCFEF734FC70BDC046F9
:104260009C200100EFF31083012098437047000069
:1042700038B5FFF7F7FF01256840C5B272B60E4C9E
:104280002368002B01D10D4B1D702368013304D12D
:104290000B480C493322FFF7D3FF2368002B06D0CD
:1042A000002D04D1084807493722FFF7C9FF2368CA
:1042B0000133236038BDC046480E00204C0E00205C
:1042C000CD200100F32001003621010010B50C4C77
:1042D0002368002B13D0FFF7C5FF002804D009483E
:1042E00009494822FFF7ACFF2368013B236023689C
:1042F000002B04D1054B1B78002B00D162B610BDFA
:10430000480E002036210100F32001004C0E002051
:104310000FB407B504A901C90191FEF705FC0120FE
:1043200000F0E4F808B500F02BF808BD38B5041C1F
:10433000FFF79AFB051CFFF797FB401BA042FAD33F
:1043400038BD000008B504490AF046F90AF0DEFB62
:10435000FFF7ECFF08BDC0460024744908B5FA23F6
:104360009B005843FFF7E2FF08BD30B585B06D46AE
:104370001824201C291CABBE041C201C05B030BD19
:10438000014B18687047C046E4F0FF1F074B10B59B
:104390000022041C08C000F021F8054B201C1A1C48
:1043A0003C3308322260636010BDC046C01D01006E
:1043B00050210100074B10B51A1C041C08323C3375
:1043C00002604360043000F02BF8201CFEF72AFF47
:1043D000201C10BD50210100007B70470D4B70B5B3
:1043E00008330360041C00230B4D4360A16002737B
:1043F000281C0E1CFEF700FF281C002E04D0074BC3
:104400001A681C60626000E06660FEF7F5FE201C22
:1044100070BDC04698210100540E0020500E0020AF
:1044200038B5041C0E4B0F4D08330360281CFEF7F3
:10443000E3FEA368281C002B0DD00B4A1368A3428F
:1044400002D16368136006E05A68A24201D0131CCF
:10445000FAE762685A60FEF7CFFE201C38BDC046FE
:1044600098210100540E0020500E002010B5041CAD
:10447000FFF7D6FF201CFEF7B3FE201C10BD000086
:10448000F8B50F4D071C281C0E1CFEF7B5FE0D4B92
:104490001C68002C0FD0A06800280AD0391C321CE0
:1044A00001F08EFA002804D1A06801F055FAB0425C
:1044B00001D06468EDE7281CFEF79EFE201CF8BDC5
:1044C000540E0020500E0020C317C01858407047EB
:1044D00010B5010000230022002005F065FB10BD8F
:1044E000014B18687047C04610F5FF1F10B500213A
:1044F000040005F0CFFB044B1868C36B002B00D001
:1045000098472000FEF728FEAC21010070B5050099
:104510000C1E08D0002802D0836B002B31D00C2257
:10452000A35E002B01D1002070BD2100280000F007
:104530003DF8E36A0600002B04D0E16928009847A3
:10454000002821DBA3891B0621D4216B002908D078
:1045500023004033994202D028000CF02BFA0023AC
:104560002363616C002904D028000CF023FA002397
:10457000636400F0F3F90023A38100F0F1F9300047
:10458000D2E700F0E3F9CAE701267642DAE72169CB
:1045900028000CF00FFAD8E710B5034B010018689B
:1045A000FFF7B4FF10BDC04610F5FF1FF0B547463A
:1045B00080B40C228B5E80469AB20C00110740D466
:1045C0008022120113436268A381002A00DC70E09C
:1045D000A66A002E31D042464146156800229BB2A1
:1045E0000A60DA0400D469E0226D5B0706D56368CF
:1045F000D21A236B002B01D0E36BD21A0023E1699E
:104600004046B047431C3DD0A2893A4B134000229C
:10461000626022691BB2A3812260DB0447D4434657
:10462000216B1D60002908D023004033994202D03D
:1046300040460CF0BFF900232363002004BC9046E1
:10464000F0BD2669002EF8D0236826609D1B00234C
:10465000920700D16369A360002D04DCEDE73618F2
:104660002D1A002DE9DD2B003200E1694046676A12
:10467000B8470028F3DC40230120A28940421343BD
:10468000A381DBE7434619681D29F4D81A4B0122A0
:10469000CB409A43EFD1A689164B62603340226922
:1046A0001BB2A3812260DB04B9D50029B7D12065F4
:1046B000B5E7E26B002A00DD8AE7BEE700220123AE
:1046C000E1694046B0470200431C02D0A389A66AB4
:1046D0008BE743461B68002BF8D01D2B01D0162B0F
:1046E00003D1434600201D60A8E74023A1890B4366
:1046F000A381A3E7FFF7FFFF0100402070B504008E
:104700000D00002802D0836B002B09D00C22AB5E79
:104710000020002B03D029002000FFF747FF70BDC9
:1047200000F014F9F2E7C04610B5011E04D0054BA5
:104730001868FFF7E3FF10BD034B0449186800F049
:10474000B5FCF8E710F5FF1FAC210100FD460000A5
:104750000D4B70B51D680400002D02D0AB6B002B13
:1047600009D06368013B6360002B08DB23685A1C97
:104770002260187870BD280000F0E8F8F1E7210009
:10478000280000F031FFF5E710F5FF1F10B50249D2
:1047900000F08CFC10BDC0460D450000F8B55F462A
:1047A00056464D464446344BF0B4C363B823002408
:1047B00003229B00C45004334568C2500833C2181A
:1047C000043BC2500600042328002C606C60AC60DF
:1047D000AB816C66EC812C616C61AC6108220021BC
:1047E0005C3000F007FE254B254F9A462B62254B87
:1047F000EF6299466B62244BED61AB62B5689846F7
:1048000009232800AB81083B2C606C60AC606C66AF
:10481000EB812C616C61AC61082200215C309B460D
:1048200000F0E8FD53462B624B466B624346EF6255
:10483000AB62ED61F56812232800AB81103BEB8180
:104840002C606C60AC606C662C616C61AC610822A1
:1048500000215C3000F0CEFD53462B624B466B626C
:104860004346AB625B46EF62ED61B3633CBC90468E
:104870009946A246AB46F8BD8D470000315800006E
:10488000C55800005D58000099580000682370B5B5
:104890004C1E5C430E00210074310CF083F8051EA1
:1048A00009D000232200036046600C30A860683203
:1048B000002100F09FFD280070BDC046224B70B55E
:1048C0001D680600AB6B002B02D12800FFF766FFC6
:1048D000B8239B009C4665446B68AC68013B03D5DC
:1048E0001FE06834013B1CD30C21625E002AF8D122
:1048F0000123002520005B42E3810233A38165662A
:104900002560A560656025616561A5615C30082250
:10491000002100F06FFD2000256365636564A564D8
:1049200070BD2B68002B01D01D00D5E7042130009D
:10493000FFF7ACFF2860002801D00500CCE70C236E
:1049400000203360ECE7C046AC210100836B10B55A
:10495000002B01D1FFF722FF10BDC0467047C046B3
:104960007047C04670B5094B094CE41AA41009D031
:10497000084AA518AD00ED182B68013C9847043D86
:10498000002CF9D10CF030FE70BDC04698F9FF1F25
:104990009CF9FF1FFFFFFF3FF0B583B00F00110030
:1049A00001AA050006F058FA061E23D02800FFF7DA
:1049B00085FF041E1ED0DB23019A5B00390028000E
:1049C00000F05EFD00280FDB0F4BE08123620F4BF0
:1049D000A68163620E4BE461A3620E4BE362F305B2
:1049E0000AD4200003B0F0BDFFF7B8FF0023A38175
:1049F000FFF7B6FF0024F4E702230022210028007D
:104A000000F016F8EDE7C046315800005D58000090
:104A100099580000C558000010B5044B0A001B68E7
:104A200001001800FFF7B8FF10BDC04610F5FF1FCA
:104A300010B500F001F810BDF0B5444656464D469D
:104A40005F46F0B4904691B005000C001E000028AF
:104A500003D0836B002B00D177E08422A38952001E
:104A60001340934200D179E0A36A9946002B00D10C
:104A70004DE1012E51D0022E0DD0002E0BD0162369
:104A80002B6001277F42380011B03CBC904699460C
:104A9000A246AB46F0BD0022002793462369002BB7
:104AA00000D11EE10C22A35E9B499AB20A420CD1AE
:104AB0008021C9008A460A425BD1984A914500D1BB
:104AC000F8E0802212011343A38121002800FFF7A0
:104AD00015FE071ED5D133004246E1692800C847BC
:104AE000431CCED0216B002908D0230040339942CB
:104AF00002D028000BF05EFF00232363236920000F
:104B000023600023A2896360854B00211340A381A9
:104B100008225C3000F06EFCB5E721002800FFF7AA
:104B2000EDFDA389DA0400D4B9E0276D5A0757D404
:104B30001B075CD522682369002A01D0D21ABF184E
:104B40000122B84493460026A9E7FFF7FFFE84221E
:104B5000A38952001340934200D085E7210028002A
:104B6000FFF7CCFD80E753465246E364A389134325
:104B7000A381C246002E4AD15B46002B39D0636820
:104B8000226B9C46002A00D1B9E0E36B9B46216969
:104B9000A36B67445B1AF81A5B44824544DBC71871
:104BA000574541D95646371AC919DB1B2160636046
:104BB000002A09D0230040339A4203D01100280074
:104BC0000BF0F8FE0023236320222000A3895C3031
:104BD0009343A381183A002100F00CFC002752E710
:104BE0006368FF1A236B002B01D0E36BFF1A236964
:104BF000A6E7A389DB0479D5206D6368226B9C4608
:104C0000C71A002A7BD0E36B9B46FF1ABFE70E232F
:104C1000E15E01AA280000F085F8002800D054E7E2
:104C2000059B43449A46A7E7E36CE1695F4253461C
:104C30001F403A0000232800C847431C00D144E726
:104C40000023216B636023692360002908D02300BF
:104C50004033994202D028000BF0ACFE00232363BE
:104C60002022A3899343A3815346DF1B0FD0210049
:104C7000280000F027FC002800D026E763689F4248
:104C800000D922E72268D219DF1B2260676020006A
:104C900008225C30002100F0ADFB0027F3E6012381
:104CA0000022E1692800C8470700431C00D1E8E65C
:104CB000A3893BE70E22A15E002900DA01E701AAE1
:104CC000280000F02FF8002808D1F023029A1B02D8
:104CD000134080221202934200D144E70C22A35ECB
:104CE000EFE62100280000F05BFADBE6012300225A
:104CF000E1692800C847431C00D07EE7E5E6236849
:104D000021695A1A1300B81A6344002245E70127A3
:104D10001D332B607F42B6E61A0800009958000048
:104D2000DFF7FFFF002370B5074C050008001100F6
:104D30002360FEF7CFF9431C00D070BD2368002B21
:104D4000FBD02B60F9E7C046B4160020F0B55646FC
:104D500044465F464D46F0B4936885B001900C0020
:104D60009246002B25D08B891A072AD50A69002A7A
:104D700027D05246126893469A072FD5B74B002684
:104D800000259846002D00D16DE02B00454500D947
:104D9000B24B3200E1690198676AB847002800DC2D
:104DA00079E053469B6836182D1A181A53469860B6
:104DB000E8D1002005B03CBC90469946A246AB46DF
:104DC000F0BD2100019804F085FE002800D03BE1F1
:104DD0005246A389126893469A07CFD4DA0762D560
:104DE0000023002799461D000293002F30D0029B1C
:104DF000002B00D1C3E02E00BD4200D93E00206848
:104E00002269B0466369904207D9A26894469C44DF
:104E100062460392664500DDEFE09E4200DA92E0D2
:104E20004A46E1690198666AB0478046002832DD4B
:104E30004346ED1A00D195E04346FF1A53464246D9
:104E40009B68C1449B1A52469360B2D0002FCED1CA
:104E50005B461B6899465B465F6808239C460023B7
:104E6000E3440293C1E75B461E685D6808239C46E5
:104E7000E34487E77A4B30009E4200D91800414650
:104E800008F03AFF43463A004343E1690198656AF6
:104E9000A847002823DC0C23E25E402301201343B3
:104EA000A381404286E700270026002E23D08022DF
:104EB0009200A568134225D0A846AE425BD390224B
:104EC000D200134268D120684246390000F046FA09
:104ED0003000A3685D1B2368A560434423605346EC
:104EE0009B683F18361A181A5346986000D160E73D
:104EF000A389002EDBD15A461768566808229446CB
:104F0000E344D2E720682369984203D8636998464E
:104F10009E42AFD2B54200D935002A00390000F0D8
:104F20001DFAA36822685B1B5219A3602260002B44
:104F300001D02800D3E721000198FFF7DFFB00280C
:104F4000A9D12800CBE73200494600F007FAA36850
:104F50009B1BA36023689C46434666442660ED1A6B
:104F600000D069E721000198FFF7C8FB002892D123
:104F70000023029360E735002068B046A4E73A00BA
:104F80000A21484600F064F9002859D04B46013008
:104F9000C51A012302932EE721692268521A91460D
:104FA000626950008218D00F8218521090464A460B
:104FB000501C80194246404501D9804602005B05DD
:104FC0002DD5110001980BF0EDFC051E3FD04A468F
:104FD000216900F085F9A289224B134080221343F6
:104FE000A381434628004A46484463619B1A2561D1
:104FF00020603500A360B04666E76646494600F08B
:10500000ADF9B44623682100634423600198FFF79B
:1050100075FB002800D03EE7039B984608E70198FF
:105020000BF0C4FC051EDCD1019D216928000BF0AA
:10503000C1FC8022A38993431AB20C232B602CE776
:1050400001237D1C0293D6E601204042B2E60C23E8
:10505000019A13600C23E25E1FE7C04600FCFF7F4D
:10506000FFFFFF7F7FFBFFFFB823F0B547469B00A4
:1050700080B4C71888460026002F13D07B68BC6810
:105080005D1E0CD4A389012B06D90E22A35E013329
:1050900002D02000C04706436834013DF2D23F6889
:1050A000002FEBD1300004BC9046F0BDF8B54F4660
:1050B0004646C0B4B8278046BF004744894600260C
:1050C000002F14D07B68BC685D1E0DD4A389012B12
:1050D00007D90E22A35E013303D021004046C84702
:1050E00006436834013DF1D23F68002FEAD1300019
:1050F0000CBC90469946F8BD70B50D4E0D4D002480
:10510000AD1BAD1005D0A300F35801349847A5425C
:10511000F9D10CF063FA084E084D0024AD1BAD1018
:1051200005D0A300F35801349847A542F9D170BDCA
:105130008CF9FF1F8CF9FF1F8CF9FF1F98F9FF1FD7
:1051400070B50C001E000E23C95E90B0150000293A
:1051500015DB01AAFFF7E6FD002810DBF023029A19
:105160001B0213400D4A8020944663445A42534127
:1051700033608023DB002B60000110B070BD002382
:105180003360A3891B0603D5402300202B60F4E77E
:105190008023DB002B600020EFE7C04600E0FFFF2C
:1051A00070B58B8982B005000C009B0707D52300E2
:1051B0004333236023610123636102B070BD01ABFF
:1051C0006A46FFF7BDFF0099060028000BF0EAFBD6
:1051D00000281CD08022134BEB63A389206013436B
:1051E000009A1BB26261019AA3812061002A02D158
:1051F0003343A381E1E70E23E15E280005F078FE4A
:1052000000280CD00122A3891A4313B2F0E70C2224
:10521000A35E9A05D1D402221343A381C7E70C22CF
:10522000A35EE5E78D47000010B5034B0100186849
:105230000BF0B8FB10BDC04610F5FF1F10B5034BB7
:10524000010018680BF0B6FB10BDC04610F5FF1F3B
:1052500070B5CDB283073CD0531E002A1FD0027810
:10526000AA421DD0032405E0002B18D00278013B90
:10527000AA4215D001302042F6D1032B11D8002BC1
:105280000DD00278AA420BD0421CC01804E00132B3
:10529000511E0978A9421AD013009042F7D100207C
:1052A00070BDFF220C0212022240FF242140114354
:1052B0000C04094E0C43026808496240511891439E
:1052C0003142DED1043B0430032BF4D8D7E7180079
:1052D000E6E71300D1E7C04680808080FFFEFEFE37
:1052E00070B50F2A32D90C0004430B00A40731D14A
:1052F00015000400103D2D0901352D0149191E68C6
:1053000026605E6866609E68A660DE681033E660B0
:1053100010349942F3D10F2345191340032B1BD9A5
:105320001C1F0023A4080134A400CE58EE500433FF
:105330009C42FAD103232D1909191A4005D00023E4
:10534000CC5CEC5401339A42FAD170BD0500002ABE
:10535000F5D1FAE70500F2E71A00F8E770B58842E0
:105360000BD98B18984208D2991A531E002A03D0E1
:10537000CA5CC254013BFBD270BD0F2A09D805009C
:10538000002AF9D00023CC5CEC5401339A42FAD1C4
:10539000F2E70C0004430B00A40726D1150004001B
:1053A000103D2D0901352D0149191E6826605E68E2
:1053B00066609E68A660DE681033E660103499422D
:1053C000F3D10F2445191440032C10D90023043CB9
:1053D000A4080134A400CE58EE5004339C42FAD104
:1053E00003232D1909191A40CAE70500CAE722004C
:1053F000C6E7C04670B583073FD0541E002A3BD095
:10540000CEB20300032503E0621E002C34D014004A
:1054100001335A1E16702B42F6D1032C24D9FF25D6
:105420000D402A0215432A0415430F2C11D92600DA
:10543000103E3609013636011A009B191560556079
:105440009560D56010329342F8D10F221440032C9E
:105450000AD9261FB6080136B6001A009B1920C2C9
:105460009342FCD103221440002C05D0C9B21C1970
:10547000197001339C42FBD170BD14000300CCE7CE
:1054800070B50500080011000022064C22601A00C9
:10549000FDF7E8FE431C00D070BD2368002BFBD055
:1054A0002B60F9E7B4160020092210B58389134058
:1054B0000022092B01D0100010BDFFF735F90200C2
:1054C000F9E7C046F8B505000C00002802D0836B50
:1054D000002B4CD080210C23E25E890193B20B4259
:1054E00006D10A433D4B616EA2810B40636693B2C5
:1054F00000216160990637D4590725D5216B002911
:105500000CD023004033994202D028000BF052FA0D
:1055100000232363E36B6360002B42D12369002BDC
:105520004FD00C23E75EBEB2B30723D12369280016
:10553000236022696369E169256AA8470300606006
:105540000020002B09DDF8BDD9063FD508261E42F4
:105550002BD104231A43A281E0E7002B1BD0402368
:10556000A28960601343A38101204042EBE7FFF76B
:10557000EDF9AFE70123A381194B1A491868FFF72A
:1055800073FD0923A7811E40092ECFD121002800D9
:10559000FFF70CF8CAE72023A28901381343A3813F
:1055A000D1E7A36B00202360CDE721002800FFF79F
:1055B000A5F80028D8D1A289A060B24312B2A06198
:1055C000C7E721002800FFF7EBFDAAE709232B60BE
:1055D000402301201A43A2814042B4E7FFDFFFFFCE
:1055E000AC210100A954000070B505000C00002892
:1055F00002D0836B002B0DD021002800FFF762FF43
:1056000000280AD16368013B636023685A1C22604A
:10561000187870BDFFF79AF9EEE701204042F8E7ED
:105620004A424A41802310B55200DB0000F002F8E4
:1056300010BDC046F0B546464F46C0B41E00554B9F
:1056400083B01D68040088461700002D03D0AB6BA3
:10565000002B00D176E0022F05D0012F00D986E083
:10566000002E00DA83E021002800FFF747F8216BC5
:10567000002908D023004033994202D028000BF0C3
:1056800099F9002323630023A36163600C23E25E86
:10569000130650D4404B1340A381022F37D001ABE7
:1056A0006A4621002800FFF74BFDA3891843A0811B
:1056B000002E20D04346002B1ED0AB6B002B48D0D1
:1056C000009B9E424BD08022A389120113431BB240
:1056D000A381012F47D042462260226108229BB25B
:1056E00066611A4024D0DB0730D500237642A360E0
:1056F000A661002017E0009E3000FFF795FD804670
:10570000002837D08023A2891343A381D5E7002046
:1057100002221343A3810023A360230043332360A9
:1057200023610123636103B00CBC90469946F0BD30
:10573000A2600020F7E7216928000BF03BF90C2359
:10574000E25EA7E72800FFF701F984E7A6600020E2
:10575000E9E72800FFF7FAF8009B9E42B3D10C223C
:10576000A35E012FB7D101221343A381B3E7012028
:105770004042D8E7009B9946B34206D01800FFF795
:1057800053FD4E4680460028BCD101200C22A35E6A
:105790004042BDE710F5FF1F5CF3FFFF0EB410B5EC
:1057A0009DB002A9029008610B488224886048617C
:1057B000012040421FABC881084804CBA400006808
:1057C00001938C8100F048F90023029A13701DB0F8
:1057D00010BC08BC03B01847FFFFFF7F10F5FF1F88
:1057E0000EB4812370B59DB002AC21AD9B0040CDBD
:1057F000A3810290069000F0AFF80B4B606023622B
:10580000002323636364013BE381084B6061320042
:10581000186821002B00019501F02EFD1DB070BC11
:1058200008BC03B01847C0465958000010F5FF1FC8
:1058300070B50C000E25495F06F08CF8002803DBDC
:10584000236D1B18236570BDA289024B1340A381F1
:10585000F9E7C046FFEFFFFF00207047F8B51600DC
:105860001F000C23CA5E05000C00D30507D50E23CC
:10587000C95E0022022305F069FB0C23E25E054BA2
:1058800028001340A38132000E23E15E3B0004F0A8
:105890000DF9F8BDFFEFFFFF70B50C000E25495F55
:1058A00005F054FB431C06D08022A3895201134308
:1058B000A381206570BDA289014B1340A381F9E744
:1058C000FFEFFFFF10B50E23C95E04F061FA10BDB3
:1058D000024670B50A4392072AD11E4DEE0104C854
:1058E00008C9541B9443344017D0D0B2D9B2401ADF
:1058F0002106014310D190B299B2401A210401430C
:105900000AD110021902000A090A401A21020143B1
:1059100002D1100E190E401A70BD9A42DFD010BA93
:1059200019BA884201D9012070BD0020C04370BD62
:1059300002780B7801300131002A09D09A4207D150
:1059400002780B7801300131002A01D09A42EFD061
:10595000D01A70BD0101010110B5830727D003786B
:10596000002B26D00300032102E01A78002A1CD065
:1059700001330B42F9D119680F4A104C8A188A4337
:1059800022420FD1043319680B4A8A188A432242F3
:1059900008D104331968084A8A188A432242F1D090
:1059A00000E001331A78002AFBD1181A10BD030059
:1059B000E1E70020FAE7C046FFFEFEFE808080801F
:1059C000030030B50020002A3BD01C000C43A40784
:1059D00020D1032A1ED91C680D68AC421AD1043AA2
:1059E000002A2ED01A4D6519A5432C00194D2C42C2
:1059F0000CD026E018680C68A0420BD1043A002AAB
:105A000020D0134C041984432C421BD1043304319D
:105A1000032AEFD81C780878013AA04214D1002A52
:105A200010D04C1C8A18002805D10BE0A24209D0E6
:105A30000134002906D00133197820788142F5D04D
:105A4000081A30BD0020FCE72100081AF9E7C0461B
:105A5000FFFEFEFE80808080F0B55F4644465646DD
:105A60004D46F0B4C3B00C001193079193460990D2
:105A700005F068FA00681990FFF76EFF1890A38987
:105A80001B0605D523690893002B01D101F06CF9A1
:105A900032AB2593002325AFBB607B601493169334
:105AA000179332AE1A930C935B461B785C46002B1F
:105AB0001CD0252B02D119E0252B03D001342378EB
:105AC000002BF9D15B46E51A10D05B463360BB680A
:105AD00075605B19BB607B6801337B60072B61DC01
:105AE00008360C9B9C46AC4463460C932378002BF1
:105AF00061D0012040420B900020631C9B46002394
:105B00000D90089010308146303016AA84464030FF
:105B1000D3770021002282465D46637801351C0060
:105B2000203C582C00D9ABE3D448A4000459A74624
:105B30000D9B11945B420D93042308981843089021
:105B40002B78EBE73024119B1EAA1470181D4834E3
:105B50001B685470AB460022089D0E930023290059
:105B600016ACE2770B9A0F9302331943002A00DA3E
:105B700096E3802295432A001A430E9B08921190C7
:105B8000002B00D076E37833BD4913930B9B9846E6
:105B9000002B00D10CE300239846002400230E9331
:105BA0000F946BE23A000799099807F0EBF9002887
:105BB00009D132AE95E7BB68002B04D03A000799B3
:105BC000099807F0DFF9079B0C989B895B0601D5C4
:105BD00001F05EF943B03CBC90469946A246AB4604
:105BE000F0BD1393AB46002A01D001F010FB202337
:105BF00008990B4000D1A8E10722119B073393437A
:105C0000013294469C4462465C681B6825001C0077
:105C10000023119216AAD3770B9B0E940F95002B9D
:105C200001DA00F0B9FF802399430891210029434C
:105C300000D1A6E1002398460722B44632AB924633
:105C40001C000E9A0F9B5807D6085146DD083043BA
:105C50002B0005001140013C3031217002001D4332
:105C6000F1D10E920F93089A12946646D20700D48F
:105C70001EE2302901D101F0CDF83023129D013D03
:105C80002B7032AB5B1B10931295109A13000B9A7A
:105C9000934200DA13000A93002315934346002B26
:105CA00002D00A9B01330A930223089A1A409246B3
:105CB00002D00A9B02330A938423089A1A40914621
:105CC00000D0FCE20D9B0A9A9C1A002C00DCF6E244
:105CD0006C49BA687B688846102C1FDD310010259E
:105CE000464603E0103C0831102C15DD103201331C
:105CF0000E604D60BA607B60072BF3DD3A000799B8
:105D0000099807F03FF9002800D05CE7103CBA681A
:105D10007B6832A9102CE9DCB0460E004146746065
:105D20000133A4183160BC607B60072B01DD00F0FB
:105D30005BFD16ABDB7F08369846C1E26B1C9846CC
:105D40002B782A2B01D101F04BFA302040428346B8
:105D50009B44584600244546092801D901F0DCF946
:105D600090465A46A30001351C196B1E1B7864002F
:105D7000A4181A00303A092AF4D94246A846002C41
:105D800001DA01F08FF80B944546C8E65046089BAF
:105D9000034308932B78C1E630246442A3460020D5
:105DA0009B44904603005A469C00E3185B00013573
:105DB000D3186A1E14782200303A092AF4D90D93B8
:105DC00042462300ABE61393AB46002A01D001F014
:105DD00012FA1023089A1A430892089B9B0601D4D2
:105DE00000F049FD0723119A07329A4301339C467C
